{
  "contractName": "PiggyWithEvents",
  "abi": [
    {
      "anonymous": false,
      "inputs": [
        {
          "indexed": true,
          "internalType": "address",
          "name": "userAddress",
          "type": "address"
        },
        {
          "indexed": false,
          "internalType": "uint256",
          "name": "moneyAmount",
          "type": "uint256"
        },
        {
          "indexed": false,
          "internalType": "bool",
          "name": "processType",
          "type": "bool"
        }
      ],
      "name": "MoneyProcessEvent",
      "type": "event"
    },
    {
      "constant": false,
      "inputs": [
        {
          "internalType": "string",
          "name": "_name",
          "type": "string"
        },
        {
          "internalType": "uint8",
          "name": "_age",
          "type": "uint8"
        }
      ],
      "name": "setUser",
      "outputs": [],
      "payable": false,
      "stateMutability": "nonpayable",
      "type": "function"
    },
    {
      "constant": false,
      "inputs": [
        {
          "internalType": "uint256",
          "name": "_moneyAmount",
          "type": "uint256"
        }
      ],
      "name": "addMoney",
      "outputs": [],
      "payable": false,
      "stateMutability": "nonpayable",
      "type": "function"
    },
    {
      "constant": false,
      "inputs": [
        {
          "internalType": "uint256",
          "name": "_moneyAmount",
          "type": "uint256"
        }
      ],
      "name": "withdrawMoney",
      "outputs": [],
      "payable": false,
      "stateMutability": "nonpayable",
      "type": "function"
    },
    {
      "constant": true,
      "inputs": [],
      "name": "getChanges",
      "outputs": [
        {
          "internalType": "uint256",
          "name": "",
          "type": "uint256"
        },
        {
          "internalType": "uint256",
          "name": "",
          "type": "uint256"
        }
      ],
      "payable": false,
      "stateMutability": "view",
      "type": "function"
    },
    {
      "constant": true,
      "inputs": [],
      "name": "getBalance",
      "outputs": [
        {
          "internalType": "uint256",
          "name": "",
          "type": "uint256"
        }
      ],
      "payable": false,
      "stateMutability": "view",
      "type": "function"
    },
    {
      "constant": true,
      "inputs": [],
      "name": "getUserData",
      "outputs": [
        {
          "internalType": "string",
          "name": "",
          "type": "string"
        },
        {
          "internalType": "uint8",
          "name": "",
          "type": "uint8"
        }
      ],
      "payable": false,
      "stateMutability": "view",
      "type": "function"
    }
  ],
  "bytecode": "0x608060405234801561001057600080fd5b50610aab806100206000396000f3fe608060405234801561001057600080fd5b50600436106100625760003560e01c806312065fe01461006757806322e8c87d146100855780635487692114610115578063c299a18f14610143578063d0bc1a881461020b578063deebf89d14610239575b600080fd5b61006f61025e565b6040518082815260200191505060405180910390f35b61008d6102a5565b60405180806020018360ff1660ff168152602001828103825284818151815260200191508051906020019080838360005b838110156100d95780820151818401526020810190506100be565b50505050905090810190601f1680156101065780820380516001836020036101000a031916815260200191505b50935050505060405180910390f35b6101416004803603602081101561012b57600080fd5b81019080803590602001909291905050506103dd565b005b6102096004803603604081101561015957600080fd5b810190808035906020019064010000000081111561017657600080fd5b82018360208201111561018857600080fd5b803590602001918460018302840111640100000000831117156101aa57600080fd5b91908080601f016020809104026020016040519081016040528093929190818152602001838380828437600081840152601f19601f820116905080830192505050505050509192919290803560ff169060200190929190505050610667565b005b6102376004803603602081101561022157600080fd5b8101908080359060200190929190505050610702565b005b6102416108f4565b604051808381526020018281526020019250505060405180910390f35b6000600160003373ffffffffffffffffffffffffffffffffffffffff1673ffffffffffffffffffffffffffffffffffffffff16815260200190815260200160002054905090565b606060008060003373ffffffffffffffffffffffffffffffffffffffff1673ffffffffffffffffffffffffffffffffffffffff1681526020019081526020016000206000016000803373ffffffffffffffffffffffffffffffffffffffff1673ffffffffffffffffffffffffffffffffffffffff16815260200190815260200160002060010160009054906101000a900460ff16818054600181600116156101000203166002900480601f0160208091040260200160405190810160405280929190818152602001828054600181600116156101000203166002900480156103ce5780601f106103a3576101008083540402835291602001916103ce565b820191906000526020600020905b8154815290600101906020018083116103b157829003601f168201915b50505050509150915091509091565b7f7fffffffffffffffffffffffffffffffffffffffffffffffffffffffffffffff8110610455576040517f08c379a0000000000000000000000000000000000000000000000000000000008152600401808060200182810382526023815260200180610a546023913960400191505060405180910390fd5b80600160003373ffffffffffffffffffffffffffffffffffffffff1673ffffffffffffffffffffffffffffffffffffffff1681526020019081526020016000205410156104ed576040517f08c379a000000000000000000000000000000000000000000000000000000000815260040180806020018281038252602f815260200180610a25602f913960400191505060405180910390fd5b80600160003373ffffffffffffffffffffffffffffffffffffffff1673ffffffffffffffffffffffffffffffffffffffff168152602001908152602001600020600082825403925050819055506000600260003373ffffffffffffffffffffffffffffffffffffffff1673ffffffffffffffffffffffffffffffffffffffff1681526020019081526020016000205414156105c75743600260003373ffffffffffffffffffffffffffffffffffffffff1673ffffffffffffffffffffffffffffffffffffffff168152602001908152602001600020819055505b43600360003373ffffffffffffffffffffffffffffffffffffffff1673ffffffffffffffffffffffffffffffffffffffff16815260200190815260200160002050503373ffffffffffffffffffffffffffffffffffffffff167f30ad498568023019bc3ac69ce0f10e17add6cee60f3fd2ee4dcd3381e6af667682600060405180838152602001821515151581526020019250505060405180910390a250565b60405180604001604052808381526020018260ff168152506000803373ffffffffffffffffffffffffffffffffffffffff1673ffffffffffffffffffffffffffffffffffffffff16815260200190815260200160002060008201518160000190805190602001906106d992919061097f565b5060208201518160010160006101000a81548160ff021916908360ff1602179055509050505050565b7f7fffffffffffffffffffffffffffffffffffffffffffffffffffffffffffffff811061077a576040517f08c379a0000000000000000000000000000000000000000000000000000000008152600401808060200182810382526023815260200180610a546023913960400191505060405180910390fd5b6000600260003373ffffffffffffffffffffffffffffffffffffffff1673ffffffffffffffffffffffffffffffffffffffff1681526020019081526020016000205414156108075743600260003373ffffffffffffffffffffffffffffffffffffffff1673ffffffffffffffffffffffffffffffffffffffff168152602001908152602001600020819055505b43600360003373ffffffffffffffffffffffffffffffffffffffff1673ffffffffffffffffffffffffffffffffffffffff168152602001908152602001600020505080600160003373ffffffffffffffffffffffffffffffffffffffff1673ffffffffffffffffffffffffffffffffffffffff168152602001908152602001600020600082825401925050819055503373ffffffffffffffffffffffffffffffffffffffff167f30ad498568023019bc3ac69ce0f10e17add6cee60f3fd2ee4dcd3381e6af667682600160405180838152602001821515151581526020019250505060405180910390a250565b600080600260003373ffffffffffffffffffffffffffffffffffffffff1673ffffffffffffffffffffffffffffffffffffffff16815260200190815260200160002054600360003373ffffffffffffffffffffffffffffffffffffffff1673ffffffffffffffffffffffffffffffffffffffff16815260200190815260200160002054915091509091565b828054600181600116156101000203166002900490600052602060002090601f016020900481019282601f106109c057805160ff19168380011785556109ee565b828001600101855582156109ee579182015b828111156109ed5782518255916020019190600101906109d2565b5b5090506109fb91906109ff565b5090565b610a2191905b80821115610a1d576000816000905550600101610a05565b5090565b9056fe4d6f6e657920616d6f756e74206d757374206265206c657373206f7220657175616c207468616e2062616c616e63654d6f6e657920616d6f756e74206d7573742062652067726561746572207468616e2030a265627a7a7231582015f068d7dfd0bf59c6fb4d27875eb3e827f9f6524190e0ab934b1a225841a67f64736f6c63430005100032",
  "source": "/*\nCopyright 2020 - Şafak Öksüzer, Berkay Korkmaz\n\nLicensed under the Apache License, Version 2.0 (the \"License\");\nyou may not use this file except in compliance with the License.\nYou may obtain a copy of the License at\n\nhttp://www.apache.org/licenses/LICENSE-2.0\n\nUnless required by applicable law or agreed to in writing, software\ndistributed under the License is distributed on an \"AS IS\" BASIS,\nWITHOUT WARRANTIES OR CONDITIONS OF ANY KIND, either express or implied.\nSee the License for the specific language governing permissions and\nlimitations under the License.\n*/\n\npragma solidity >=0.4.21 <0.7.0;\n\ncontract PiggyWithEvents{\n    // Struct Define\n    struct UserData{\n        string name;\n        uint8 age;\n    }\n\n    // Events\n    event MoneyProcessEvent(address indexed userAddress, uint moneyAmount, bool processType);\n\n    // Mapping Data\n    mapping(address => UserData) UserDataMap;\n    mapping(address => uint) UserMoneyMap;\n    mapping(address => uint) UserFirstChange;\n    mapping(address => uint) UserLastChange;\n\n    function setUser(string memory _name, uint8 _age) public {\n        UserDataMap[msg.sender] = UserData({\n            name: _name,\n            age: _age\n            });\n    }\n\n    function addMoney(uint _moneyAmount) public{\n        require (_moneyAmount < 0x7FFFFFFFFFFFFFFFFFFFFFFFFFFFFFFFFFFFFFFFFFFFFFFFFFFFFFFFFFFFFFFF,\n            \"Money amount must be greater than 0\");\n        if(UserFirstChange[msg.sender]==0){\n            UserFirstChange[msg.sender] = block.number;\n        }\n        UserLastChange[msg.sender]==block.number;\n        UserMoneyMap[msg.sender] += _moneyAmount;\n        emit MoneyProcessEvent(msg.sender, _moneyAmount, true);\n\n    }\n\n    function withdrawMoney(uint _moneyAmount) public {\n        require (_moneyAmount < 0x7FFFFFFFFFFFFFFFFFFFFFFFFFFFFFFFFFFFFFFFFFFFFFFFFFFFFFFFFFFFFFFF,\n            \"Money amount must be greater than 0\");\n        require(UserMoneyMap[msg.sender] >= _moneyAmount,\n            \"Money amount must be less or equal than balance\");\n\n        UserMoneyMap[msg.sender] -= _moneyAmount;\n        if(UserFirstChange[msg.sender]==0){\n            UserFirstChange[msg.sender] = block.number;\n        }\n        UserLastChange[msg.sender]==block.number;\n        emit MoneyProcessEvent(msg.sender, _moneyAmount, false);\n    }\n\n    function getChanges() public view returns(uint, uint){\n        return (UserFirstChange[msg.sender], UserLastChange[msg.sender]);\n    }\n\n    function getBalance() public view returns(uint) {\n\n        return UserMoneyMap[msg.sender];\n\n    }\n\n    function getUserData() public view returns(string memory, uint8) {\n\n        return (UserDataMap[msg.sender].name, UserDataMap[msg.sender].age);\n\n    }\n\n}\n",
  "sourcePath": "/home/safak/myworkshop/free-software/piggy-chain/contracts/PiggyWithEvents.sol",
  "compiler": {
    "name": "solc",
    "version": "0.5.16+commit.9c3226ce.Emscripten.clang"
  },
  "schemaVersion": "3.0.23",
  "updatedAt": "2020-04-21T16:48:10.381Z",
  "devdoc": {
    "methods": {}
  },
  "userdoc": {
    "methods": {}
  }
}