{
  "contractName": "Piggy",
  "abi": [
    {
      "constant": false,
      "inputs": [
        {
          "internalType": "string",
          "name": "_name",
          "type": "string"
        },
        {
          "internalType": "uint8",
          "name": "_age",
          "type": "uint8"
        }
      ],
      "name": "setUser",
      "outputs": [],
      "payable": false,
      "stateMutability": "nonpayable",
      "type": "function"
    },
    {
      "constant": false,
      "inputs": [
        {
          "internalType": "uint256",
          "name": "_moneyAmount",
          "type": "uint256"
        }
      ],
      "name": "addMoney",
      "outputs": [],
      "payable": false,
      "stateMutability": "nonpayable",
      "type": "function"
    },
    {
      "constant": false,
      "inputs": [
        {
          "internalType": "uint256",
          "name": "_moneyAmount",
          "type": "uint256"
        }
      ],
      "name": "withdrawMoney",
      "outputs": [],
      "payable": false,
      "stateMutability": "nonpayable",
      "type": "function"
    },
    {
      "constant": true,
      "inputs": [],
      "name": "getBalance",
      "outputs": [
        {
          "internalType": "uint256",
          "name": "",
          "type": "uint256"
        }
      ],
      "payable": false,
      "stateMutability": "view",
      "type": "function"
    },
    {
      "constant": true,
      "inputs": [],
      "name": "getUserData",
      "outputs": [
        {
          "internalType": "string",
          "name": "",
          "type": "string"
        },
        {
          "internalType": "uint8",
          "name": "",
          "type": "uint8"
        }
      ],
      "payable": false,
      "stateMutability": "view",
      "type": "function"
    }
  ],
  "bytecode": "0x608060405234801561001057600080fd5b5061079c806100206000396000f3fe608060405234801561001057600080fd5b50600436106100575760003560e01c806312065fe01461005c57806322e8c87d1461007a578063548769211461010a578063c299a18f14610138578063d0bc1a8814610200575b600080fd5b61006461022e565b6040518082815260200191505060405180910390f35b610082610275565b60405180806020018360ff1660ff168152602001828103825284818151815260200191508051906020019080838360005b838110156100ce5780820151818401526020810190506100b3565b50505050905090810190601f1680156100fb5780820380516001836020036101000a031916815260200191505b50935050505060405180910390f35b6101366004803603602081101561012057600080fd5b81019080803590602001909291905050506103ad565b005b6101fe6004803603604081101561014e57600080fd5b810190808035906020019064010000000081111561016b57600080fd5b82018360208201111561017d57600080fd5b8035906020019184600183028401116401000000008311171561019f57600080fd5b91908080601f016020809104026020016040519081016040528093929190818152602001838380828437600081840152601f19601f820116905080830192505050505050509192919290803560ff16906020019092919050505061050d565b005b61022c6004803603602081101561021657600080fd5b81019080803590602001909291905050506105a8565b005b6000600160003373ffffffffffffffffffffffffffffffffffffffff1673ffffffffffffffffffffffffffffffffffffffff16815260200190815260200160002054905090565b606060008060003373ffffffffffffffffffffffffffffffffffffffff1673ffffffffffffffffffffffffffffffffffffffff1681526020019081526020016000206000016000803373ffffffffffffffffffffffffffffffffffffffff1673ffffffffffffffffffffffffffffffffffffffff16815260200190815260200160002060010160009054906101000a900460ff16818054600181600116156101000203166002900480601f01602080910402602001604051908101604052809291908181526020018280546001816001161561010002031660029004801561039e5780601f106103735761010080835404028352916020019161039e565b820191906000526020600020905b81548152906001019060200180831161038157829003601f168201915b50505050509150915091509091565b7f7fffffffffffffffffffffffffffffffffffffffffffffffffffffffffffffff8110610425576040517f08c379a00000000000000000000000000000000000000000000000000000000081526004018080602001828103825260238152602001806107456023913960400191505060405180910390fd5b80600160003373ffffffffffffffffffffffffffffffffffffffff1673ffffffffffffffffffffffffffffffffffffffff1681526020019081526020016000205410156104bd576040517f08c379a000000000000000000000000000000000000000000000000000000000815260040180806020018281038252602f815260200180610716602f913960400191505060405180910390fd5b80600160003373ffffffffffffffffffffffffffffffffffffffff1673ffffffffffffffffffffffffffffffffffffffff1681526020019081526020016000206000828254039250508190555050565b60405180604001604052808381526020018260ff168152506000803373ffffffffffffffffffffffffffffffffffffffff1673ffffffffffffffffffffffffffffffffffffffff168152602001908152602001600020600082015181600001908051906020019061057f929190610670565b5060208201518160010160006101000a81548160ff021916908360ff1602179055509050505050565b7f7fffffffffffffffffffffffffffffffffffffffffffffffffffffffffffffff8110610620576040517f08c379a00000000000000000000000000000000000000000000000000000000081526004018080602001828103825260238152602001806107456023913960400191505060405180910390fd5b80600160003373ffffffffffffffffffffffffffffffffffffffff1673ffffffffffffffffffffffffffffffffffffffff1681526020019081526020016000206000828254019250508190555050565b828054600181600116156101000203166002900490600052602060002090601f016020900481019282601f106106b157805160ff19168380011785556106df565b828001600101855582156106df579182015b828111156106de5782518255916020019190600101906106c3565b5b5090506106ec91906106f0565b5090565b61071291905b8082111561070e5760008160009055506001016106f6565b5090565b9056fe4d6f6e657920616d6f756e74206d757374206265206c657373206f7220657175616c207468616e2062616c616e63654d6f6e657920616d6f756e74206d7573742062652067726561746572207468616e2030a265627a7a72315820525befcb8a029a7ad80d54f2752cbd98f1608bd396e2328a33702a67eff5d3c064736f6c63430005100032",
  "source": "/*\nCopyright 2020 - Şafak Öksüzer, Berkay Korkmaz\n\nLicensed under the Apache License, Version 2.0 (the \"License\");\nyou may not use this file except in compliance with the License.\nYou may obtain a copy of the License at\n\nhttp://www.apache.org/licenses/LICENSE-2.0\n\nUnless required by applicable law or agreed to in writing, software\ndistributed under the License is distributed on an \"AS IS\" BASIS,\nWITHOUT WARRANTIES OR CONDITIONS OF ANY KIND, either express or implied.\nSee the License for the specific language governing permissions and\nlimitations under the License.\n*/\n\npragma solidity >=0.4.21 <0.7.0;\n\ncontract Piggy{\n\n    // Mapping\n    mapping(address => UserData) UserDataMap;\n    mapping(address => uint) UserMoneyMap;\n\n    struct UserData{\n        string name;\n        uint8 age;\n    }\n\n    function setUser(string memory _name, uint8 _age) public {\n        UserDataMap[msg.sender] = UserData({\n            name: _name,\n            age: _age\n        });\n    }\n\n    function addMoney(uint _moneyAmount) public{\n        require (_moneyAmount < 0x7FFFFFFFFFFFFFFFFFFFFFFFFFFFFFFFFFFFFFFFFFFFFFFFFFFFFFFFFFFFFFFF,\n            \"Money amount must be greater than 0\");\n\n        UserMoneyMap[msg.sender] += _moneyAmount;\n\n    }\n\n    function withdrawMoney(uint _moneyAmount) public {\n        require (_moneyAmount < 0x7FFFFFFFFFFFFFFFFFFFFFFFFFFFFFFFFFFFFFFFFFFFFFFFFFFFFFFFFFFFFFFF,\n            \"Money amount must be greater than 0\");\n        require(UserMoneyMap[msg.sender] >= _moneyAmount,\n        \"Money amount must be less or equal than balance\");\n\n        UserMoneyMap[msg.sender] -= _moneyAmount;\n\n    }\n\n    function getBalance() public view returns(uint) {\n\n        return UserMoneyMap[msg.sender];\n\n    }\n\n    function getUserData() public view returns(string memory, uint8) {\n\n        return (UserDataMap[msg.sender].name, UserDataMap[msg.sender].age);\n\n    }\n\n}\n",
  "sourcePath": "/home/safak/myworkshop/free-software/piggy-chain/contracts/Piggy.sol",
  "compiler": {
    "name": "solc",
    "version": "0.5.16+commit.9c3226ce.Emscripten.clang"
  },
  "schemaVersion": "3.0.23",
  "updatedAt": "2020-04-21T16:48:10.380Z",
  "devdoc": {
    "methods": {}
  },
  "userdoc": {
    "methods": {}
  }
}