{
  "contractName": "Piggy",
  "abi": [
    {
      "inputs": [
        {
          "components": [
            {
              "internalType": "string",
              "name": "name",
              "type": "string"
            },
            {
              "internalType": "uint8",
              "name": "age",
              "type": "uint8"
            }
          ],
          "internalType": "struct Piggy.UserData",
          "name": "_userData",
          "type": "tuple"
        }
      ],
      "name": "setUser",
      "outputs": [],
      "stateMutability": "nonpayable",
      "type": "function"
    },
    {
      "inputs": [
        {
          "internalType": "uint256",
          "name": "_moneyAmount",
          "type": "uint256"
        }
      ],
      "name": "addMoney",
      "outputs": [],
      "stateMutability": "nonpayable",
      "type": "function"
    },
    {
      "inputs": [
        {
          "internalType": "uint256",
          "name": "_moneyAmount",
          "type": "uint256"
        }
      ],
      "name": "withdrawMoney",
      "outputs": [],
      "stateMutability": "nonpayable",
      "type": "function"
    },
    {
      "inputs": [],
      "name": "getBalance",
      "outputs": [
        {
          "internalType": "uint256",
          "name": "",
          "type": "uint256"
        }
      ],
      "stateMutability": "view",
      "type": "function",
      "constant": true
    },
    {
      "inputs": [],
      "name": "getUserData",
      "outputs": [
        {
          "components": [
            {
              "internalType": "string",
              "name": "name",
              "type": "string"
            },
            {
              "internalType": "uint8",
              "name": "age",
              "type": "uint8"
            }
          ],
          "internalType": "struct Piggy.UserData",
          "name": "",
          "type": "tuple"
        }
      ],
      "stateMutability": "view",
      "type": "function",
      "constant": true
    }
  ],
  "bytecode": "0x608060405234801561001057600080fd5b5061078d806100206000396000f3fe608060405234801561001057600080fd5b50600436106100575760003560e01c806312065fe01461005c57806322e8c87d1461007a578063548769211461009857806398c0717f146100b4578063d0bc1a88146100d0575b600080fd5b6100646100ec565b604051610071919061062f565b60405180910390f35b610082610133565b60405161008f919061060d565b60405180910390f35b6100b260048036036100ad9190810190610550565b610248565b005b6100ce60048036036100c9919081019061050f565b610298565b005b6100ea60048036036100e59190810190610550565b61031b565b005b6000600160003373ffffffffffffffffffffffffffffffffffffffff1673ffffffffffffffffffffffffffffffffffffffff16815260200190815260200160002054905090565b61013b61036b565b6000803373ffffffffffffffffffffffffffffffffffffffff1673ffffffffffffffffffffffffffffffffffffffff168152602001908152602001600020604051806040016040529081600082018054600181600116156101000203166002900480601f01602080910402602001604051908101604052809291908181526020018280546001816001161561010002031660029004801561021d5780601f106101f25761010080835404028352916020019161021d565b820191906000526020600020905b81548152906001019060200180831161020057829003601f168201915b505050505081526020016001820160009054906101000a900460ff1660ff1660ff1681525050905090565b80600160003373ffffffffffffffffffffffffffffffffffffffff1673ffffffffffffffffffffffffffffffffffffffff1681526020019081526020016000206000828254039250508190555050565b806000803373ffffffffffffffffffffffffffffffffffffffff1673ffffffffffffffffffffffffffffffffffffffff16815260200190815260200160002060008201518160000190805190602001906102f3929190610388565b5060208201518160010160006101000a81548160ff021916908360ff16021790555090505050565b80600160003373ffffffffffffffffffffffffffffffffffffffff1673ffffffffffffffffffffffffffffffffffffffff1681526020019081526020016000206000828254019250508190555050565b604051806040016040528060608152602001600060ff1681525090565b828054600181600116156101000203166002900490600052602060002090601f016020900481019282601f106103c957805160ff19168380011785556103f7565b828001600101855582156103f7579182015b828111156103f65782518255916020019190600101906103db565b5b5090506104049190610408565b5090565b61042a91905b8082111561042657600081600090555060010161040e565b5090565b90565b600082601f83011261043e57600080fd5b813561045161044c82610677565b61064a565b9150808252602083016020830185838301111561046d57600080fd5b6104788382846106d6565b50505092915050565b60006040828403121561049357600080fd5b61049d604061064a565b9050600082013567ffffffffffffffff8111156104b957600080fd5b6104c58482850161042d565b60008301525060206104d9848285016104fa565b60208301525092915050565b6000813590506104f481610729565b92915050565b60008135905061050981610740565b92915050565b60006020828403121561052157600080fd5b600082013567ffffffffffffffff81111561053b57600080fd5b61054784828501610481565b91505092915050565b60006020828403121561056257600080fd5b6000610570848285016104e5565b91505092915050565b6000610584826106a3565b61058e81856106ae565b935061059e8185602086016106e5565b6105a781610718565b840191505092915050565b600060408301600083015184820360008601526105cf8282610579565b91505060208301516105e460208601826105fe565b508091505092915050565b6105f8816106bf565b82525050565b610607816106c9565b82525050565b6000602082019050818103600083015261062781846105b2565b905092915050565b600060208201905061064460008301846105ef565b92915050565b6000604051905081810181811067ffffffffffffffff8211171561066d57600080fd5b8060405250919050565b600067ffffffffffffffff82111561068e57600080fd5b601f19601f8301169050602081019050919050565b600081519050919050565b600082825260208201905092915050565b6000819050919050565b600060ff82169050919050565b82818337600083830152505050565b60005b838110156107035780820151818401526020810190506106e8565b83811115610712576000848401525b50505050565b6000601f19601f8301169050919050565b610732816106bf565b811461073d57600080fd5b50565b610749816106c9565b811461075457600080fd5b5056fea26469706673582212209df614e3c65378c7e580df5b36f697afacabff72e5e768f03ce8cc2da6c6e43b64736f6c63430006000033",
  "source": "pragma solidity ^0.6.0;\npragma experimental ABIEncoderV2;\n\n\ncontract Piggy{\n\n    mapping(address => UserData) UserDataMap;\n    mapping(address => uint) UserMoneyMap;\n\n    struct UserData{\n        string name;\n        uint8 age;\n    }\n\n    function setUser(UserData memory _userData) public {\n\n        UserDataMap[msg.sender] = _userData;\n    }\n\n\n    function addMoney(uint _moneyAmount) public {\n\n        UserMoneyMap[msg.sender] += _moneyAmount;\n\n    }\n\n    function withdrawMoney(uint _moneyAmount) public {\n\n        UserMoneyMap[msg.sender] -= _moneyAmount;\n\n    }\n\n    function getBalance() public view returns(uint) {\n\n        return UserMoneyMap[msg.sender];\n\n    }\n\n    function getUserData() public view returns(UserData memory) {\n\n        return UserDataMap[msg.sender];\n\n    }\n\n}\n",
  "sourcePath": "/home/safak/myworkshop/tubuarge/free-zone/trufflesuite-test/contracts/Piggy.sol",
  "compiler": {
    "name": "solc",
    "version": "0.6.0+commit.26b70077.Emscripten.clang"
  },
  "schemaVersion": "3.0.23",
  "updatedAt": "2020-02-28T21:48:53.249Z",
  "networkType": "ethereum",
  "devdoc": {
    "methods": {}
  },
  "userdoc": {
    "methods": {}
  }
}